:100000000C942A000C9447000C9447000C94470071
:100010000C9447000C9447000C9447000C94470044
:100020000C9447000C9447000C9447000C94470034
:100030000C9447000C9447000C9447000C94470024
:100040000C9447000C9447000C9447000C94470014
:100050000C94470011241FBECFE5D8E0DEBFCDBF12
:1000600011E0A0E6B0E0EEE3F8E202C005900D92E8
:10007000AE37B107D9F711E0AEE7B1E001C01D928C
:10008000A03AB107E1F70E9417070C941D140C94D5
:100090000000EF92FF920F931F937B018C0120E0F1
:1000A00030E040E05FE40E94F50388238CF0C80153
:1000B000B70120E030E040E05FE40E94C1010E940F
:1000C00055049B01AC01205030404040504806C0D0
:1000D000C801B7010E9455049B01AC01B901CA01D6
:1000E0001F910F91FF90EF900895A0E0B0E0EBE733
:1000F000F0E00C94E010DC012B01FA019C919230AD
:1001000008F439C1EB018881823008F433C194309E
:1001100069F4843009F02FC111969C91119789815F
:10012000981709F428C1A6E7B0E025C1843009F486
:1001300021C18230A9F4923009F01DC19A01AD01AC
:1001400088E0EA010990AE01E90109929E0181501F
:10015000C1F7E201898111969C918923818308C1AD
:10016000923009F407C112962D903C901397EB0141
:100170008A819B811496AD90BD90CD90DC901797AD
:10018000EC80FD800E811F819101281B390BB90184
:1001900037FF04C066277727621B730B6032710537
:1001A0000CF061C0121613066CF537014801062EDB
:1001B00004C096948794779467940A94D2F721E0C8
:1001C00030E040E050E004C0220F331F441F551FB1
:1001D0006A95D2F721503040404050402E213F21B7
:1001E00040235123211531054105510521F021E01E
:1001F00030E040E050E079018A01E628F72808293C
:1002000019293CC0232BD1F1260E371E350146019A
:10021000062E04C096948794779467940A94D2F734
:1002200021E030E040E050E004C0220F331F441FC3
:10023000551F6A95D2F721503040404050402A2146
:100240003B214C215D21211531054105510521F04E
:1002500021E030E040E050E059016A01A628B728CB
:10026000C828D9280BC0821593052CF01C01AA249C
:10027000BB24650103C0EE24FF24870111969C91E5
:10028000D20111968C91981709F445C0992339F041
:10029000A80197012A193B094C095D0906C0A6016E
:1002A00095012E193F09400B510B57FD08C01182D3
:1002B0003382228224833583468357831DC081E0A5
:1002C00081833382228288279927DC01821B930B4A
:1002D000A40BB50B84839583A683B7830DC0220F2F
:1002E000331F441F551F24833583468357838281E0
:1002F000938101979383828324813581468157813D
:10030000DA01C9010197A109B1098F5F9F4FAF4F72
:10031000BF4328F30BC0918333822282EA0CFB1C7B
:100320000C1D1D1DE482F5820683178383E0808304
:10033000248135814681578157FF1AC0C901AA27F8
:1003400097FDA095BA2F81709070A070B0705695EF
:10035000479537952795822B932BA42BB52B848318
:100360009583A683B7838281938101969383828349
:10037000DF0101C0D201CD01CDB7DEB7E2E10C94BF
:10038000FC10A0E2B0E0E7ECF1E00C94EC10698323
:100390007A838B839C832D833E834F835887E9E048
:1003A000EE2EF12CEC0EFD1ECE010196B7010E943F
:1003B00046068E010F5E1F4FCE010596B8010E94C2
:1003C00046068A8991E089278A8BC701B801AE0168
:1003D000475E5F4F0E9475000E947105A096E6E09F
:1003E0000C940811A0E2B0E0E8EFF1E00C94EC10FE
:1003F00069837A838B839C832D833E834F835887C5
:10040000F9E0EF2EF12CEC0EFD1ECE010196B701A6
:100410000E9446068E010F5E1F4FCE010596B80161
:100420000E944606C701B801AE01475E5F4F0E94B9
:1004300075000E947105A096E6E00C940811A0E2F8
:10044000B0E0E5E2F2E00C94E01069837A838B83FC
:100450009C832D833E834F835887CE010196BE0136
:10046000675F7F4F0E944606CE010596BE016F5E14
:100470007F4F0E9446069985923088F089898230A4
:10048000C8F0943019F4823051F404C0843029F457
:10049000923081F486E790E0C6C0923049F420E0C3
:1004A0009A858A89981321E02A87CE010996BBC0D4
:1004B000823049F420E09A858A89981321E02A8BBA
:1004C000CE014196B0C02D843E844F8458886D88FB
:1004D0007E888F88988CEE24FF248701AA24BB2471
:1004E000650140E050E060E070E0E0E0F0E0C10174
:1004F00081709070892BE9F0E60CF71C081D191D1E
:100500009A01AB012A0D3B1D4C1D5D1D80E090E062
:10051000A0E0B0E0E614F7040805190520F481E036
:1005200090E0A0E0B0E0BA01A901480F591F6A1F8E
:100530007B1FAA0CBB1CCC1CDD1C97FE08C081E0F5
:1005400090E0A0E0B0E0A82AB92ACA2ADB2A3196B6
:10055000E032F10549F0660C771C881C991C569412
:10056000479437942794C3CFFA85EA892B893C892D
:100570008B859C85280F391F2E5F3F4F17C0CA01FE
:1005800081709070892B61F016950795F794E79428
:1005900080E090E0A0E0B0E8E82AF92A0A2B1B2BC3
:1005A00076956795579547952F5F3F4F77FDE7CF36
:1005B0000CC0440F551F661F771F17FD4160EE0CDE
:1005C000FF1C001F111F21503040403090E05907A0
:1005D00090E0690790E4790760F32B8F3C8FDB0193
:1005E000CA018F779070A070B07080349105A1051A
:1005F000B10561F447FD0AC0E114F10401051105DC
:1006000029F0405C5F4F6F4F7F4F40781A8EFE1786
:1006100011F081E08A8F4D8F5E8F6F8F78A383E01A
:10062000898FCE0149960E947105A096E2E10C9453
:10063000FC10A8E1B0E0EFE1F3E00C94E81069836E
:100640007A838B839C832D833E834F835887B9E0C5
:10065000EB2EF12CEC0EFD1ECE010196B7010E948F
:1006600046068E010F5E1F4FCE010596B8010E940F
:1006700046062985223008F47EC03989323010F4CC
:10068000B8017CC08A859A8989278A87243011F02D
:10069000223031F4231709F06EC066E770E06EC0B7
:1006A000343039F41D861E861F86188A1C861B86E8
:1006B00004C0323021F484E08987B7015FC02B8504
:1006C0003C858B899C89281B390B3C872B87ED84C3
:1006D000FE840F851889AD88BE88CF88D88CEA142F
:1006E000FB040C051D0540F4EE0CFF1C001F111F40
:1006F000215030403C872B8720E030E040E050E044
:1007000080E090E0A0E0B0E460E070E0EA14FB0478
:100710000C051D0540F0282B392B4A2B5B2BEA18C2
:10072000FB080C091D09B695A79597958795EE0CC2
:10073000FF1C001F111F6F5F7F4F6F31710531F775
:10074000DA01C9018F779070A070B0708034910584
:10075000A105B10561F427FD0AC0E114F10401050A
:10076000110529F0205C3F4F4F4F5F4F20782D87B8
:100770003E874F87588BBE01675F7F4FCB010E943A
:1007800071056896EAE00C940411A8E1B0E0EBEC86
:10079000F3E00C94EC1069837A838B839C832D8324
:1007A0003E834F83588789E0E82EF12CEC0EFD1E26
:1007B000CE010196B7010E9446068E010F5E1F4FC3
:1007C000CE010596B8010E9446068985823040F028
:1007D0008989823028F0C701B8010E94BE0601C095
:1007E0008FEF6896E6E00C940811A8E1B0E0EBEF1B
:1007F000F3E00C94EC1069837A838B839C832D83C4
:100800003E834F83588789E0E82EF12CEC0EFD1EC5
:10081000CE010196B7010E9446068E010F5E1F4F62
:10082000CE010596B8010E9446068985823040F0C7
:100830008989823028F0C701B8010E94BE0601C034
:100840008FEF6896E6E00C940811A8E1B0E0EBE2C7
:10085000F4E00C94EC1069837A838B839C832D8362
:100860003E834F83588789E0E82EF12CEC0EFD1E65
:10087000CE010196B7010E9446068E010F5E1F4F02
:10088000CE010596B8010E9446068985823040F067
:100890008989823028F0C701B8010E94BE0601C0D4
:1008A00081E06896E6E00C940811ACE0B0E0EBE57E
:1008B000F4E00C94F01069837A838B839C83CE01DF
:1008C0000196BE016B5F7F4F0E9446068D8182308C
:1008D00061F1823050F1843021F48E81882351F10E
:1008E0002EC02F81388537FD20C06E812F31310514
:1008F0001CF06623F9F023C08EE190E0821B930B7D
:1009000029853A854B855C8504C056954795379572
:1009100027958A95D2F76623B1F05095409530958A
:1009200021953F4F4F4F5F4F0EC020E030E040E039
:1009300050E009C02FEF3FEF4FEF5FE704C020E02A
:1009400030E040E050E8B901CA012C96E2E00C9496
:100950000C11A8E0B0E0EFEAF4E00C94E8107B01A1
:100960008C01611571058105910519F482E0898377
:1009700060C083E089838EE1C82ED12CDC82CB82DB
:10098000ED82FE820F831887C801B7010E942205FD
:10099000FC013197F7FF3BC0222733272E1B3F0B6B
:1009A00057016801022E04C0D694C794B794A79447
:1009B0000A94D2F740E050E060E070E081E090E01F
:1009C000A0E0B0E004C0880F991FAA1FBB1F2A95A2
:1009D000D2F70197A109B1098E219F21A023B1234C
:1009E0000097A105B10521F041E050E060E070E022
:1009F0004A295B296C297D294D835E836F83788723
:100A00008EE190E08E1B9F0B9C838B8312C03097EE
:100A100081F00E2E04C0EE0CFF1C001F111F0A9463
:100A2000D2F7ED82FE820F831887CE1ADF0ADC82AE
:100A3000CB821A82CE0101960E9471052896EAE0C7
:100A40000C940411EF92FF920F931F937B018C0182
:100A500080E0E81680E0F80681E0080780E01807EB
:100A600088F48FEFE816F1040105110531F028F044
:100A700088E090E0A0E0B0E017C080E090E0A0E067
:100A8000B0E012C080E0E81680E0F80680E00807D9
:100A900081E0180728F088E190E0A0E0B0E004C011
:100AA00080E190E0A0E0B0E020E230E040E050E003
:100AB000281B390B4A0B5B0B04C016950795F7945E
:100AC000E7948A95D2F7F701E258FF4F8081281BFF
:100AD000310941095109C9011F910F91FF90EF9010
:100AE0000895DF92EF92FF920F931F93FC01E48031
:100AF000F58006811781D1808081823048F480E0C2
:100B000090E0A0E1B0E0E82AF92A0A2B1B2BA5C04F
:100B1000843009F49FC0823021F4EE24FF24870141
:100B200005C0E114F1040105110519F4E0E0F0E05D
:100B300096C0628173819FEF623879070CF05BC0C9
:100B400022E83FEF261B370B2A3131052CF020E03D
:100B500030E040E050E02AC0B801A701022E04C0F6
:100B600076956795579547950A94D2F781E090E07E
:100B7000A0E0B0E004C0880F991FAA1FBB1F2A95F0
:100B8000D2F70197A109B1098E219F21A023B1239A
:100B90000097A105B10521F081E090E0A0E0B0E070
:100BA0009A01AB01282B392B4A2B5B2BDA01C901A7
:100BB0008F779070A070B07080349105A105B10559
:100BC00039F427FF09C0205C3F4F4F4F5F4F04C0EF
:100BD000215C3F4F4F4F5F4FE0E0F0E02030A0E05E
:100BE0003A07A0E04A07A0E45A0710F0E1E0F0E07D
:100BF00079018A0127C06038710564F5FB01E1586D
:100C0000FF4FD801C7018F779070A070B07080340B
:100C10009105A105B10539F4E7FE0DC080E490E02F
:100C2000A0E0B0E004C08FE390E0A0E0B0E0E80E08
:100C3000F91E0A1F1B1F17FF05C016950795F7948D
:100C4000E794319687E016950795F794E7948A958F
:100C5000D1F705C0EE24FF248701EFEFF0E06E2FFF
:100C6000679566276795902F9F77D794DD24D79453
:100C70008E2F8695492F462B582F5D29B701CA0123
:100C80001F910F91FF90EF90DF900895FC01DB0121
:100C9000408151812281622F6F7770E0221F2227CD
:100CA000221F9381892F880F822B282F30E0991FD4
:100CB0009927991F11969C93119721153105A9F534
:100CC000411551056105710511F482E037C082E8D4
:100CD0009FEF13969C938E9312979A01AB0167E056
:100CE000220F331F441F551F6A95D1F783E08C9361
:100CF0000DC0220F331F441F551F12968D919C91DA
:100D00001397019713969C938E931297203080E04F
:100D1000380780E0480780E4580758F314962D936D
:100D20003D934D935C93179708952F3F310579F4C8
:100D3000411551056105710519F484E08C930895FE
:100D400064FF03C081E08C9312C01C9210C02F5727
:100D5000304013963C932E93129783E08C9387E058
:100D6000440F551F661F771F8A95D1F7706414963C
:100D70004D935D936D937C93179708951F93DC01BA
:100D8000FB019C91923008F447C08081823008F4C6
:100D900043C0943051F411961C91843099F58181AF
:100DA000682F70E0611B71093FC0843021F09230E0
:100DB00031F48230B9F18181882389F12DC01196F7
:100DC0001C9111978230F1F081811817D9F4129695
:100DD0002D913C911397828193818217930794F010
:100DE00028173907BCF014968D919D910D90BC91F8
:100DF000A02D2481358146815781281739074A075C
:100E00005B0718F4112341F00AC082179307A40767
:100E1000B50740F4112319F061E070E005C06FEFF1
:100E20007FEF02C060E070E0CB011F910895CF9288
:100E3000DF92EF92FF920F93DF93CF93CDB7DEB7A0
:100E40000E94910780E060E00E94180B80E690E02D
:100E50000E943F0B81E060E00E94180B86E690E064
:100E60000E943F0B80E066E00E94180B0E949B0BE3
:100E700082E369E10E94A90B809194019091910114
:100E8000209192013091900150919301ECE8F1E0B2
:100E9000ACE9B1E0692F422F232F052F7F016D01AF
:100EA0000E94D70B80918C0190918D01A0918E01B1
:100EB000B0918F012EE731E0BC01CD01A9012AE0FC
:100EC00030E00E94381180919C0190919D01A09189
:100ED0009E01B0919F01BC01CD010E945504DC012F
:100EE000CB0125E931E0B9014AE050E00E94171139
:100EF00080E066E00E94180B8EE791E00E943F0BB5
:100F00008CE690E00E943F0B81E066E00E94180BA7
:100F100085E991E00E943F0B80E790E00E943F0B43
:100F2000ABCFDF93CF93CDB7DEB7E4970FB6F8948E
:100F3000DEBF0FBECDBF81E061E041E00E94780DD1
:100F400081E062E041E00E94780D81E063E041E0F1
:100F50000E94780D80E064E041E00E94780D80E01E
:100F600065E041E00E94780D80E066E041E00E948B
:100F7000780D80E067E041E00E94780D81E062E05A
:100F800040E00E945B0E80E090E0A0E7B1E489AB16
:100F90009AABABABBCAB69A97AA98BA99CA920E0A1
:100FA00030E04AE755E40E941F02DC01CB018DA727
:100FB0009EA7AFA7B8AB6DA57EA58FA598A920E089
:100FC00030E040E85FE30E94250488232CF481E0B0
:100FD00090E09CA78BA73FC06DA57EA58FA598A983
:100FE00020E03FEF4FE757E40E94C50318164CF589
:100FF00069A97AA98BA99CA920E030E040E251E4DC
:101000000E941F02DC01CB01BC01CD010E944900FE
:10101000DC01CB019CA78BA70FC080E991E09AA7C8
:1010200089A789A59AA50197F1F79AA789A78BA502
:101030009CA501979CA78BA78BA59CA5009769F7FA
:1010400014C06DA57EA58FA598A90E944900DC015A
:10105000CB019CA78BA78BA59CA598A78FA38FA13D
:1010600098A50197F1F798A78FA383E00E94F10A52
:1010700080E090E0A0EAB0E48BA39CA3ADA3BEA364
:101080006BA17CA18DA19EA120E030E04AE755E450
:101090000E941F02DC01CB018F8F98A3A9A3BAA3E2
:1010A0006F8D78A189A19AA120E030E040E85FE34C
:1010B0000E94250488232CF481E090E09E8F8D8F80
:1010C0003FC06F8D78A189A19AA120E03FEF4FE743
:1010D00057E40E94C50318164CF56BA17CA18DA1A5
:1010E0009EA120E030E040E251E40E941F02DC01BA
:1010F000CB01BC01CD010E944900DC01CB019E8FD8
:101100008D8F0FC080E991E09C8F8B8F8B8D9C8D94
:101110000197F1F79C8F8B8F8D8D9E8D01979E8F00
:101120008D8F8D8D9E8D009769F714C06F8D78A17E
:1011300089A19AA10E944900DC01CB019E8F8D8F6D
:101140008D8D9E8D9A8F898F898D9A8D0197F1F75C
:101150009A8F898F83E00E94F10A80E090E0A8ECEA
:10116000B2E48D8B9E8BAF8BB88F6D897E898F8912
:10117000988D2BEA3AEA4AEA50E40E941F02DC0109
:10118000CB01898B9A8BAB8BBC8B69897A898B89D4
:101190009C8920E030E040E85FE30E94250488233A
:1011A0001CF481E0888B91C069897A898B899C893C
:1011B00020E030E04FE753E40E94C50318160CF01E
:1011C0007BC06D897E898F89988D20E030E04AE769
:1011D00054E40E941903DC01CB018C879D87AE8704
:1011E000BF876C857D858E859F8520E030E04AE74E
:1011F00055E40E941F02DC01CB0188879987AA87EA
:10120000BB87688579858A859B8520E030E040E84A
:101210005FE30E94250488232CF481E090E09F8303
:101220008E833FC0688579858A859B8520E03FEF66
:101230004FE757E40E94C50318164CF56C857D8571
:101240008E859F8520E030E040E251E40E941F023D
:10125000DC01CB01BC01CD010E944900DC01CB01C6
:101260009F838E830FC080E991E09D838C838C8166
:101270009D810197F1F79D838C838E819F810197DA
:101280009F838E838E819F81009769F724C0688534
:1012900079858A859B850E944900DC01CB019F836B
:1012A0008E838E819F819B838A838A819B81019714
:1012B000F1F79B838A830FC069897A898B899C891E
:1012C0000E944900DC01CB01888B88898983898150
:1012D0008A95F1F7898383E00E94F10A82E00E94F7
:1012E000F10A88E20E94F10AE4960FB6F894DEBF94
:1012F0000FBECDBFCF91DF910895DF93CF93CDB7D0
:10130000DEB7A6970FB6F894DEBF0FBECDBF81E063
:1013100063E041E00E945B0E80E090E0A0E8BFE364
:101320008BA39CA3ADA3BEA36BA17CA18DA19EA109
:101330002BEA3AEA4AEA50E40E941F02DC01CB01A0
:101340008F8F98A3A9A3BAA36F8D78A189A19AA121
:1013500020E030E040E85FE30E94250488231CF48D
:1013600081E08E8F91C06F8D78A189A19AA120E034
:1013700030E04FE753E40E94C50318160CF07BC021
:101380006BA17CA18DA19EA120E030E04AE754E44E
:101390000E941903DC01CB018A8F9B8FAC8FBD8F1C
:1013A0006A8D7B8D8C8D9D8D20E030E04AE755E481
:1013B0000E941F02DC01CB018E8B9F8BA88FB98FFF
:1013C0006E897F89888D998D20E030E040E85FE369
:1013D0000E94250488232CF481E090E09D8B8C8B67
:1013E0003FC06E897F89888D998D20E03FEF4FE760
:1013F00057E40E94C50318164CF56A8D7B8D8C8DC1
:101400009D8D20E030E040E251E40E941F02DC01AB
:10141000CB01BC01CD010E944900DC01CB019D8BB9
:101420008C8B0FC080E991E09B8B8A8B8A899B898A
:101430000197F1F79B8B8A8B8C899D8901979D8BF6
:101440008C8B8C899D89009769F724C06E897F8970
:10145000888D998D0E944900DC01CB019D8B8C8B7E
:101460008C899D89998B888B888999890197F1F757
:10147000998B888B0FC06F8D78A189A19AA10E944A
:101480004900DC01CB018E8F8E8D8F878F858A95E9
:10149000F1F78F8781E063E040E00E945B0E80E01F
:1014A00090E0A0E0B0E48B879C87AD87BE876B851A
:1014B0007C858D859E8520E030E04AE755E40E94DA
:1014C0001F02DC01CB018F839887A987BA876F81C0
:1014D000788589859A8520E030E040E85FE30E94C6
:1014E000250488232CF481E090E09E838D833FC007
:1014F0006F81788589859A8520E03FEF4FE757E433
:101500000E94C50318164CF56B857C858D859E85DC
:1015100020E030E040E251E40E941F02DC01CB01F8
:10152000BC01CD010E944900DC01CB019E838D836B
:101530000FC080E991E09C838B838B819C81019714
:10154000F1F79C838B838D819E8101979E838D8390
:101550008D819E81009769F714C06F817885898598
:101560009A850E944900DC01CB019E838D838D8189
:101570009E819A83898389819A810197F1F79A8361
:101580008983A6960FB6F894DEBF0FBECDBFCF916C
:10159000DF910895DF93CF9300D00F92CDB7DEB7E0
:1015A0008B838B81807F8A838B818295807F8983E7
:1015B00081E061E041E00E945B0E80E06A814FE0E3
:1015C0000E943E0F0E947D0980E069814FE00E94E9
:1015D0003E0F0E947D090F900F900F90CF91DF91E9
:1015E0000895DF93CF9300D00F92CDB7DEB78B83F2
:1015F0008B81807F8A838B818295807F898381E044
:1016000061E040E00E945B0E80E06A814FE00E9452
:101610003E0F0E947D0980E069814FE00E943E0FED
:101620000E947D090F900F900F90CF91DF91089548
:10163000DF93CF9300D000D0CDB7DEB789836A8324
:101640008981282F30E03C832B838B819C810097FC
:1016500031F02B813C812130310531F009C08A8184
:1016600080580E94F10A04C08A8180540E94F10AC5
:101670000F900F900F900F90CF91DF910895DF930F
:10168000CF9300D0CDB7DEB79A8389830AC0E981B2
:10169000FA8180810E94CA0A89819A8101969A837F
:1016A0008983E981FA818081882389F70F900F90DF
:1016B000CF91DF910895DF93CF93CDB7DEB7299710
:1016C0000FB6F894DEBF0FBECDBF6E837F838887D1
:1016D00099878DB79EB708970FB6F8949EBF0FBE37
:1016E0008DBFEDB7FEB73196CE0101969183808311
:1016F00083E790E0938382838E819F81A885B9855B
:1017000084839583A683B7830E946C118DB79EB79F
:1017100008960FB6F8949EBF0FBE8DBFCE010196FE
:101720000E943F0B29960FB6F894DEBF0FBECDBFC7
:10173000CF91DF910895DF93CF93CDB7DEB7A3E5C7
:10174000B0E0E3E5F0E0808188648C93CF91DF9195
:101750000895DF93CF9300D000D0CDB7DEB78B8351
:101760006C831A8219828C81482F50E0CA019C0137
:10177000220F331FC9019695982F88279795879533
:10178000821B930B840F951F24E630E0B9010E9461
:10179000AA10CB019A838983ECE5F0E089818083EC
:1017A0000F900F900F900F90CF91DF910895CF92EF
:1017B000DF92EF92FF920F931F93DF93CF93CDB7FA
:1017C000DEB729970FB6F894DEBF0FBECDBF898371
:1017D0006A834B832C830D83FF82EE82D986C88671
:1017E000EFE4F0E01082EEE4F0E01082E2E5F0E0F9
:1017F0001082E8E5F0E080E28083AEE4B0E0EEE461
:10180000F0E0808180648C93E8E5F0E08081882FAF
:1018100090E0807290700097B9F3E6E4F0E0808188
:1018200091818983A8E5B0E0E8E5F0E080818062FD
:101830008C93AEE4B0E0EEE4F0E080818F7B8C939B
:10184000E8E5F0E08081882F90E08072907000974A
:10185000B9F3E6E4F0E0808191818A83A8E5B0E005
:10186000E8E5F0E0808180628C93AEE4B0E0EEE4E5
:10187000F0E0808180648C93E8E5F0E08081882F3F
:1018800090E0807290700097B9F3E6E4F0E0808118
:1018900091818B83A8E5B0E0E8E5F0E0808180628B
:1018A0008C93EEE4F0E0108299818A81981708F019
:1018B00052C09A818B81981708F04DC09A81898116
:1018C000292F281B822F8C839B818981292F281BFC
:1018D000822F8D838D81282F30E040E050E080E022
:1018E00094E2A4EFB0E0BC01CD010E94BE10DA0189
:1018F000C901EE81FF8180839183A283B3838C81B0
:10190000882F90E0A0E0B0E0BC01CD010E94A904C6
:101910007B018C018D81882F90E0A0E0B0E0BC01BC
:10192000CD010E94A9049B01AC01C801B7010E942E
:101930001903DC01CB01BC01CD0120E030E048EC13
:1019400052E40E941F02DC01CB01E885F985808307
:101950009183A283B38329960FB6F894DEBF0FBE9E
:10196000CDBFCF91DF911F910F91FF90EF90DF904E
:10197000CF900895DF93CF9300D00F92CDB7DEB70D
:1019800089838981282F30E03B832A838A819B8148
:101990008130910589F02A813B8122303105A1F007
:1019A0008A819B810097B9F4ABE5B0E0EBE5F0E00C
:1019B000808180648C930FC0ABE5B0E0EBE5F0E094
:1019C000808180688C9307C0ABE5B0E0EBE5F0E088
:1019D000808180628C930F900F900F90CF91DF9158
:1019E0000895DF93CF9300D00F92CDB7DEB78983F0
:1019F0008981282F30E03B832A838A819B81813033
:101A0000910589F02A813B8122303105A1F08A813C
:101A10009B810097B9F4ABE5B0E0EBE5F0E08081A5
:101A20008F7B8C930FC0ABE5B0E0EBE5F0E08081FD
:101A30008F778C9307C0ABE5B0E0EBE5F0E08081F9
:101A40008F7D8C930F900F900F90CF91DF91089521
:101A5000DF93CF9300D000D0CDB7DEB789836A8300
:101A60008981282F30E03C832B838B819C818130BE
:101A7000910591F02B813C8122303105E9F08B8179
:101A80009C81009771F5A5E5B0E0E5E5F0E0908177
:101A90008A81892B8C9325C0A5E5B0E0E5E5F0E0CF
:101AA0008081282F8A81882F90E0880F991F880FC6
:101AB000991F822B8C9315C08A81823041F4A4E552
:101AC000B0E0E4E5F0E080818F7B8C930AC08A81EE
:101AD000833039F4A4E5B0E0E4E5F0E0808180648F
:101AE0008C930F900F900F900F90CF91DF910895EE
:101AF000DF93CF9300D000D00F92CDB7DEB78983AC
:101B00006A834B838981282F30E03D832C838C812D
:101B10009D818130910509F443C02C813D812230A3
:101B200031052CF48C819D81009771F0BCC02C8113
:101B30003D812230310509F45FC08C819D81833065
:101B4000910509F485C0AFC08B818823A9F4AAE36D
:101B5000B0E0EAE3F0E08081482F8A81282F30E06E
:101B600081E090E0022E02C0880F991F0A94E2F7EC
:101B7000809584238C9397C0AAE3B0E0EAE3F0E079
:101B80008081482F8A81282F30E081E090E0022E6A
:101B900002C0880F991F0A94E2F7842B8C9383C0AC
:101BA0008B818823A9F4A7E3B0E0E7E3F0E080812C
:101BB000482F8A81282F30E081E090E0022E02C079
:101BC000880F991F0A94E2F7809584238C936BC049
:101BD000A7E3B0E0E7E3F0E08081482F8A81282F77
:101BE00030E081E090E0022E02C0880F991F0A9435
:101BF000E2F7842B8C9357C08B818823A9F4A4E34C
:101C0000B0E0E4E3F0E08081482F8A81282F30E0C3
:101C100081E090E0022E02C0880F991F0A94E2F73B
:101C2000809584238C933FC0A4E3B0E0E4E3F0E02C
:101C30008081482F8A81282F30E081E090E0022EB9
:101C400002C0880F991F0A94E2F7842B8C932BC053
:101C50008B818823A9F4A1E3B0E0E1E3F0E0808187
:101C6000482F8A81282F30E081E090E0022E02C0C8
:101C7000880F991F0A94E2F7809584238C9313C0F0
:101C8000A1E3B0E0E1E3F0E08081482F8A81282FD2
:101C900030E081E090E0022E02C0880F991F0A9484
:101CA000E2F7842B8C930F900F900F900F900F9072
:101CB000CF91DF910895DF93CF9300D000D00F92A2
:101CC000CDB7DEB789836A834B838981282F30E0C3
:101CD0003D832C838C819D818130910509F443C023
:101CE0002C813D81223031052CF48C819D8100971F
:101CF00071F0BCC02C813D812230310509F45FC0F8
:101D00008C819D818330910509F485C0AFC08B81A2
:101D10008130A1F4ABE3B0E0EBE3F0E08081482F49
:101D20008A81282F30E081E090E0022E02C0880FE7
:101D3000991F0A94E2F7842B8C9398C0ABE3B0E030
:101D4000EBE3F0E08081482F8A81282F30E081E0AA
:101D500090E0022E02C0880F991F0A94E2F7809546
:101D600084238C9383C08B818130A1F4A8E3B0E0FD
:101D7000E8E3F0E08081482F8A81282F30E081E07D
:101D800090E0022E02C0880F991F0A94E2F7842B7C
:101D90008C936CC0A8E3B0E0E8E3F0E08081482FCA
:101DA0008A81282F30E081E090E0022E02C0880F67
:101DB000991F0A94E2F7809584238C9357C08B81F6
:101DC0008130A1F4A5E3B0E0E5E3F0E08081482FA5
:101DD0008A81282F30E081E090E0022E02C0880F37
:101DE000991F0A94E2F7842B8C9340C0A5E3B0E0DE
:101DF000E5E3F0E08081482F8A81282F30E081E000
:101E000090E0022E02C0880F991F0A94E2F7809595
:101E100084238C932BC08B818130A1F4A2E3B0E0AA
:101E2000E2E3F0E08081482F8A81282F30E081E0D2
:101E300090E0022E02C0880F991F0A94E2F7842BCB
:101E40008C9314C0A2E3B0E0E2E3F0E08081482F7D
:101E50008A81282F30E081E090E0022E02C0880FB6
:101E6000991F0A94E2F7809584238C930F900F902A
:101E70000F900F900F90CF91DF910895DF93CF9344
:101E800000D000D00F92CDB7DEB789836A834B8331
:101E90008981282F30E03D832C838C819D81813086
:101EA000910501F12C813D81223031052CF48C818A
:101EB0009D81009761F036C02C813D812230310533
:101EC000E1F08C819D818330910511F12BC0ABE352
:101ED000B0E0EBE3F0E090818B8198238A81892B3D
:101EE0008C9320C0A8E3B0E0E8E3F0E090818B8120
:101EF00098238A81892B8C9315C0A5E3B0E0E5E394
:101F0000F0E090818B8198238A81892B8C930AC081
:101F1000A2E3B0E0E2E3F0E090818B8198238A8134
:101F2000892B8C930F900F900F900F900F90CF9163
:101F3000DF910895DF93CF9300D000D00F92CDB7FB
:101F4000DEB78A836B8319828A81282F30E03D8334
:101F50002C834C815D814130510579F18C819D81CB
:101F60008230910534F42C813D812115310569F0D1
:101F70006BC04C815D8142305105B9F18C819D81EE
:101F80008330910509F449C05FC0E9E3F0E0808146
:101F9000282F30E08B81882F90E0A90102C0559551
:101FA00047958A95E2F7CA0181709070882319F0ED
:101FB00081E0898349C0198247C0E6E3F0E080816F
:101FC000282F30E08B81882F90E0A90102C0559521
:101FD00047958A95E2F7CA0181709070882319F0BD
:101FE00081E0898331C019822FC0E3E3F0E0808172
:101FF000282F30E08B81882F90E0A90102C05595F1
:1020000047958A95E2F7CA0181709070882319F08C
:1020100081E0898319C0198217C0E0E3F0E0808174
:10202000282F30E08B81882F90E0A90102C05595C0
:1020300047958A95E2F7CA0181709070882319F05C
:1020400081E0898301C0198289810F900F900F90E0
:102050000F900F90CF91DF910895DF93CF9300D031
:1020600000D0CDB7DEB789836A838981282F30E01D
:102070003C832B838B819C818130910549F12B819D
:102080003C81223031052CF48B819C81009761F0DA
:102090005AC02B813C812230310571F18B819C81AA
:1020A00083309105E9F14FC0ABE3B0E0EBE3F0E042
:1020B0008081482F8A81282F30E081E090E0022E35
:1020C00002C0880F991F0A94E2F784278C933BC0C3
:1020D000A8E3B0E0E8E3F0E08081482F8A81282F70
:1020E00030E081E090E0022E02C0880F991F0A9430
:1020F000E2F784278C9327C0A5E3B0E0E5E3F0E0A6
:102100008081482F8A81282F30E081E090E0022EE4
:1021100002C0880F991F0A94E2F784278C9313C09A
:10212000A2E3B0E0E2E3F0E08081482F8A81282F2B
:1021300030E081E090E0022E02C0880F991F0A94DF
:10214000E2F784278C930F900F900F900F90CF9110
:10215000DF910895AA1BBB1B51E107C0AA1FBB1F3B
:10216000A617B70710F0A61BB70B881F991F5A9523
:10217000A9F780959095BC01CD010895A1E21A2E92
:10218000AA1BBB1BFD010DC0AA1FBB1FEE1FFF1F1B
:10219000A217B307E407F50720F0A21BB30BE40B6B
:1021A000F50B661F771F881F991F1A9469F76095B2
:1021B0007095809590959B01AC01BD01CF0108956C
:1021C0002F923F924F925F926F927F928F929F9247
:1021D000AF92BF92CF92DF92EF92FF920F931F9335
:1021E000CF93DF93CDB7DEB7CA1BDB0B0FB6F894E6
:1021F000DEBF0FBECDBF09942A88398848885F8426
:102200006E847D848C849B84AA84B984C884DF8096
:10221000EE80FD800C811B81AA81B981CE0FD11D7A
:102220000FB6F894DEBF0FBECDBFED010895FB01E0
:102230009F01E8944230C4F04532B4F44A3029F4A6
:1022400097FB1EF4909581959F4F642F77270E94EE
:10225000AA10805D8A330CF0895D8193CB010097D1
:10226000A1F716F45DE251931082C9010C94831317
:10227000FA01CF93FF93EF93223044F1253234F5E6
:10228000C22FE894CA3049F497FB3EF490958095AC
:10229000709561957F4F8F4F9F4F2C2F3327442789
:1022A0005527FF93EF930E94BE10EF91FF91605D61
:1022B0006A330CF0695D6193B901CA0160507040E6
:1022C0008040904051F716F4CDE2C19310828F9177
:1022D0009F91CF910C948313AEE0B0E0E2E7F1E17F
:1022E0000C94EE100D891E8986E08C831A83098375
:1022F0008FEF9FE79E838D839E01275E3F4FCE0128
:1023000001966F89788DA9010E9490112F813885DF
:10231000020F131FF80110822E96E4E00C940A11AC
:10232000ABE0B0E0E6E9F1E10C94E0103C012B01F8
:102330005A01FC0117821682838181FD03C06FEF71
:102340007FEFC6C19AE0892E1E010894211C311C22
:10235000F3012381F20123FD859123FF81912F0158
:10236000882309F4B2C1853239F423FD859123FF16
:1023700081912F01853229F490E0B3010E949313DB
:10238000E7CF982FFF24EE249924FFE1FF15D0F02A
:102390009B3269F09C3228F4903259F0933291F4D8
:1023A0000EC09D3249F0903369F441E024C052E000
:1023B000F52A84E0F82A28C098E0F92A25C0E0E14F
:1023C000FE2A22C0F7FC29C0892F80538A3070F47E
:1023D000F6FE05C0989C902C1124980E15C0E89C20
:1023E000E02C1124E80EF0E2FF2A0EC09E3229F400
:1023F000F6FC6BC140E4F42A07C09C3619F450E89F
:10240000F52A02C0983649F4F20123FD959123FF85
:1024100091912F01992309F0B8CF892F85548330EA
:1024200018F08052833038F444E050E0A40EB51E1A
:102430005FE359830FC0933631F0933779F09335CA
:1024400009F056C020C0F5018081898342E050E048
:10245000A40EB51E610101E010E012C0F501C080BC
:10246000D180F6FC03C06FEF7FEF02C0692D70E0F2
:1024700042E050E0A40EB51EC6010E9478138C0104
:102480005FE7F52214C0F501C080D180F6FC03C0DF
:102490006FEF7FEF02C0692D70E042E050E0A40EC4
:1024A000B51EC6010E946D138C0150E8F52AF3FE9B
:1024B00007C01AC080E290E0B3010E949313EA942F
:1024C0008E2D90E008171907A8F30EC0F601F7FC4F
:1024D0008591F7FE81916F0190E0B3010E94931303
:1024E000E110EA94015010400115110579F7EAC096
:1024F000943611F0993669F5F7FE08C0F501208190
:1025000031814281538184E090E00AC0F5018081ED
:1025100091819C01442737FD4095542F82E090E043
:10252000A80EB91E9FE6F92257FF09C050954095A5
:10253000309521953F4F4F4F5F4FE0E8FE2ACA018B
:10254000B901A1012AE030E00E94BF13D82ED218B1
:1025500040C0953729F41F2D1F7E2AE030E01DC0B2
:102560001F2D197F9F3661F0903720F4983509F0C0
:10257000ACC00FC0903739F0983709F0A6C004C03E
:1025800028E030E00AC0106114FD146020E130E062
:1025900004C014FD166020E132E017FF08C0F50109
:1025A000608171818281938144E050E008C0F5012F
:1025B00080819181BC0180E090E042E050E0A40E77
:1025C000B51EA1010E94BF13D82ED2188FE7F82E96
:1025D000F122F6FE0BC05EEFF522D91438F4F4FEBA
:1025E00007C0F2FC05C08FEEF82202C01D2D01C00D
:1025F000192DF4FE0DC0FE01ED0DF11D808180331B
:1026000019F499EEF92208C01F5FF2FE05C003C05D
:102610008F2D867809F01F5F0F2DF3FC14C0F0FE9C
:102620000FC01E1510F09D2C0BC09D2C9E0C911AF6
:102630001E2D06C080E290E0B3010E9493131F5F3D
:102640001E15C0F304C01E1510F4E11A01C0EE24DB
:1026500004FF0FC080E390E0B3010E94931302FFD8
:102660001DC001FD03C088E790E00EC088E590E042
:102670000BC0802F867891F001FF02C08BE201C071
:1026800080E2F7FC8DE290E0B3010E94931306C054
:1026900080E390E0B3010E9493139A94D914C0F39D
:1026A000DA94F101ED0DF11D808190E0B3010E94FB
:1026B0009313DD20A9F706C080E290E0B3010E94E9
:1026C0009313EA94EE20C1F743CEF301668177813C
:1026D000CB012B96E2E10C94FC10FC0105906150BB
:1026E00070400110D8F7809590958E0F9F1F089528
:1026F000FC016150704001900110D8F780959095D1
:102700008E0F9F1F0895DC01FC01672F71917723C5
:10271000E1F7329704C07C916D9370836291AE179C
:10272000BF07C8F308950F931F93CF93DF938C01D6
:10273000EB018B8181FF1BC082FF0DC02E813F8189
:102740008C819D812817390764F4E881F981019310
:10275000F983E88306C0E885F985802F0995892BE0
:1027600031F48E819F8101969F838E8302C00FEF8B
:102770001FEFC801DF91CF911F910F910895FA01CA
:10278000AA27283051F1203181F1E8946F936E7FB0
:102790006E5F7F4F8F4F9F4FAF4FB1E03ED0B4E0A1
:1027A0003CD0670F781F891F9A1FA11D680F791FE2
:1027B0008A1F911DA11D6A0F711D811D911DA11DF3
:1027C00020D009F468943F912AE0269F1124301903
:1027D000305D3193DEF6CF010895462F4770405D9E
:1027E0004193B3E00FD0C9F7F6CF462F4F70405D4D
:1027F0004A3318F0495D31FD4052419302D0A9F7A8
:10280000EACFB4E0A6959795879577956795BA95A1
:10281000C9F700976105710508959B01AC010A2E67
:1028200006945795479537952795BA95C9F7620F3E
:0E283000731F841F951FA01D0895F894FFCFFD
:10283E00467265713D00447574793D0020487A00FA
:10284E0020250025640000000000000000000001AB
:10285E000202030303030404040404040404050530
:10286E000505050505050505050505050505060608
:10287E0006060606060606060606060606060606EA
:10288E0006060606060606060606060606060707D8
:10289E0007070707070707070707070707070707BA
:1028AE0007070707070707070707070707070707AA
:1028BE00070707070707070707070707070707079A
:1028CE000707070707070707070707070707080888
:1028DE00080808080808080808080808080808086A
:1028EE00080808080808080808080808080808085A
:1028FE00080808080808080808080808080808084A
:10290E000808080808080808080808080808080839
:10291E000808080808080808080808080808080829
:10292E000808080808080808080808080808080819
:10293E000808080808080808080808080808080809
:0E294E0008080808080808080808080808080B
:00000001FF
